:020000040800F2
:10000000B84D0020F118000895190008991900084A
:100010009D190008A1190008A5190008000000009A
:100020000000000000000000000000000B090008B4
:10003000A919000800000000C508000865080008AC
:10004000AD190008B1190008B5190008B919000860
:10005000BD190008C1190008C5190008C919000810
:10006000CD190008D1190008D5190008D9190008C0
:10007000DD190008E1190008E5190008E919000870
:10008000ED190008F1190008F5190008F919000820
:10009000FD190008011A0008051A0008091A0008CD
:1000A0000D1A0008111A0008151A0008191A00087C
:1000B0001D1A0008211A0008251A0008291A00082C
:1000C0002D1A0008311A0008351A0008391A0008DC
:1000D0003D1A0008411A0008E7110008451A0008F7
:1000E000491A00084D1A0008511A00082DE9F84372
:1000F00084B00700884616009946300080B2800020
:1001000000F0EEFA0500002D0BD04C2000F0E8FACC
:100110000400002C01D0256304E0280000F00CFB53
:1001200000E00024002C12D00020039002940D98CF
:1001300001900C9800904B46B6B232004146380010
:1001400000F00AF8200000F052F8012001E05FF012
:10015000FF3005B0BDE8F0832DE9F84305001E002F
:100160000A9F386B00EB8200B0F104085FEAD80800
:100170005FEAC808002910D0002200E0521C102AB3
:1001800007D2885C07EB020383F83400885C002800
:10019000F4D1002087F8430002E0002087F8340003
:1001A000DDF82090B9F1050F01D35FF00409099C37
:1001B000C7F82C90381D00F0D6FA17F1180000F09F
:1001C000D2FA3F61D9F10509C7F818907F62002083
:1001D0007864002087F8480032002900404600F08B
:1001E000FFFA3860002C00D02760BDE8F18338B5F5
:1001F000040000F020FBDFF808140868401C0860C9
:10020000DFF800542868002806D12C60086801280F
:100210000DD100F094F90AE0DFF8EC030068002843
:1002200005D1E06A2968C96A884200D32C60DFF8EA
:10023000DC030168491C0160DFF8D4130A6801235C
:10024000E06A83401A430A60211DDFF8C823E36A8D
:100250001420434302EB030000F088FA00F0F7FAA1
:10026000DFF8A403006800280DD02868C06AE16A9E
:10027000884208D25FF08050DFF8A8130860BFF30F
:100280004F8FBFF36F8F31BD10B504000020002CDD
:1002900007D000F039F80021200000F0C9F900F083
:1002A00039F8002808D15FF08050DFF87C1308602F
:1002B000BFF34F8FBFF36F8F10BDE0B5DFF8EC03D6
:1002C00001900020009000238022DFF8E4130FF259
:1002D0004D20FFF70BFF012815D1BF2080F31188B7
:1002E000BFF34F8FBFF36F8F5FF0FF30DFF8C413A2
:1002F00008600120DFF8101308600020DFF8B81351
:10030000086000F085FA07BDDFF89C030168491C0E
:100310000160704770B50024002500F08CFADFF80A
:1003200088030168491E01600068002855D1DFF884
:10033000D0020068002826D14FE0C868C46814F1D4
:10034000180000F03AFA201D00F037FADFF8C0126A
:100350000A680123E06A83401A430A60211DDFF81E
:10036000B422E36A1420434302EB030000F0FEF9D9
:10037000E06ADFF890120968C96A884203D3012055
:10038000DFF838130860DFF81C1308680028D4D1A0
:10039000002C01D000F020F9DFF824633468002C31
:1003A0000CD000F01EF8002803D00120DFF80C1359
:1003B0000860641E002CF4D100203060DFF8FC02DD
:1003C0000068002809D001255FF08050DFF858123E
:1003D0000860BFF34F8FBFF36F8F00F038FA28002B
:1003E00070BDF8B50025DFF8C0020068002863D1B1
:1003F000DFF82C020468641C0460002C0ED1DFF8C6
:10040000C4020168DFF8C022136803601160DFF8DE
:10041000BC020168491C016000F0DEF8DFF894625C
:100420003068844231D323E0381D00F0C6F9B86A41
:10043000002803D017F1180000F0BFF9DFF8D01141
:100440000A680123F86A83401A430A60391DDFF8FD
:10045000C421FB6A1420434302EB030000F086F939
:10046000F86ADFF8A0110968C96A884200D301253B
:10047000DFF8501208680068002819D00868C068C2
:10048000C76878688442CFD23060DFF878010068AE
:10049000DFF88011C26A142042438858022800D332
:1004A0000125DFF81802006800280AD0012508E0BD
:1004B0005FF0FF303060E8E7DFF804020168491CB4
:1004C00001602800F2BDDFF8E0010068002804D0D8
:1004D0000120DFF8E81108601FE00020DFF8DC11E0
:1004E00008604B480068B0FA80F1D1F11F01DFF8D5
:1004F00024211420414302EB010041684968416016
:10050000416810F10802914202D141684968416096
:100510004068C068DFF888110860704780B500F057
:1005200037F83C4800680228F9D35FF08050DFF8C4
:10053000F8100860BFF34F8FBFF36F8FEFE738B548
:10054000002407E03348142101FB04F1084400F0C3
:10055000FBF8641C052CF5D3DFF87441200000F093
:10056000F3F8DFF87051280000F0EEF8DFF83401FE
:1005700000F0EAF8284800F0E7F8DFF8B00000F0F3
:10058000E3F8DFF840010460DFF83C01056031BDAD
:1005900038B513E000F04FF91F48C068C468201D4B
:1005A00000F00BF916480168491E01602868401EDA
:1005B000286000F04CF9200000F005F8174D28687D
:1005C0000028E7D131BD10B50400206B00F0B4F86D
:1005D000200000F0B1F810BDDFF8E81008680068EE
:1005E000002805D15FF0FF30DFF8C810086006E092
:1005F0000868C068C0684068DFF8B81008607047D5
:10060000844500207445002090450020A04500202E
:100610008C450020044400202C450020804500200B
:100620008845002004ED00E004ED00E04045002096
:10063000F8B505000C0020480668194F3868001D01
:1006400000F0BBF8002807D1386823490A68012365
:10065000C06A83409A430A6015F1010F07D1002C4C
:1006600005D03868011D1D4800F080F816E0AD196E
:1006700038684560B54206D23868011D12480068E6
:1006800000F080F80AE03868011D0E48006800F0AC
:1006900079F8084801688D4200D20560F1BD00007C
:1006A0007445002018450020AC450020A8450020D6
:1006B0008C190008A445002088450020984500209A
:1006C00094450020784500207C4500209C45002072
:1006D000F0440020044500208C45002040450020C7
:1006E00038B50500002415F0070F04D015F10800F7
:1006F00015F00705451BFFF707FE1049086800289D
:1007000003D10F48C008C00008600E480268AA184C
:1007100044F2F8339A420BD202680368EB189A420B
:1007200006D20968026801EB020401686D180560D1
:10073000FFF7F0FD200032BD70470000704500203B
:100740000C0000206C45002010F1080141605FF0B2
:10075000FF31816010F10801C16010F108010161F1
:1007600000210160704700210161704742684A60C2
:1007700093688B6093685960916008610168491CB7
:100780000160704710B40B6813F1010F01D10269C9
:1007900007E010F1080200E0526854682468A342A0
:1007A000FAD253684B604B6899608A605160086167
:1007B0000168491C016010BC704701698268436888
:1007C0009A60426883685A604A68824201D18268AE
:1007D0004A60002202610868401E0860086870478D
:1007E000001F5FF080730360001F4908490001602B
:1007F000001F0FF20D0101601438026020387047AD
:10080000BF2080F31188BFF34F8FBFF36F8FFEE7D8
:1008100080B51F48016851F47F010160016851F003
:100820007F41016000F03AF800201A49086000F0AA
:100830007CF8002002BDBF2080F31188BFF34F8FEA
:10084000BFF36F8F13480168491C0160704711485E
:100850000168491E01600068002802D1002080F371
:100860001188704780B5BF2080F31188BFF34F8F88
:10087000BFF36F8FFFF7B5FD002803D05FF0805006
:1008800005490860002080F3118801BD00000000C8
:1008900020ED00E00000002004ED00E0054800210C
:1008A00001600021044A11600449054A11600721D2
:1008B0000160704710E000E018E000E03F1901001F
:1008C00014E000E0EFF30980BFF36F8F1D4B1A684F
:1008D00020E9F00F106008B54FF0BF0080F31188D9
:1008E000BFF34F8FBFF36F8FFFF7EDFD4FF00000A9
:1008F00080F31188BDE8084019680868B0E8F00F77
:1009000080F30988BFF36F8F70470E4B1968086832
:10091000B0E8F00F80F30988BFF36F8F4FF000004D
:1009200080F311884EF00D0E70470748006800688C
:1009300080F3088862B661B6BFF34F8FBFF36F8F45
:1009400000DF00007445002008ED00E0E0B500F095
:100950006DFA00F096FA00F0DBFADFF820140220BE
:1009600000F00CFB00200190012000900023802269
:10097000DFF80C140FF22500FFF7B8FB0020019000
:100980000220009000234FF48072DFF8F8130FF27A
:100990002900FFF7ABFBFFF790FCFEE780B500F006
:1009A000C6FA4FF47A70FFF76FFC00F0C5FA4FF407
:1009B0007A70FFF769FCF2E780B5022000F054FB83
:1009C000022000F059FBDFF8C00300F053FC0028C0
:1009D0000CD04FF4FA70FFF757FCDFF8B00300F0CB
:1009E00069FC002801D000BF00E000BF022000F039
:1009F0003BFB022000F040FBDFF8940300F03AFCE0
:100A000000280CD04FF4FA70FFF73EFCDFF88403A7
:100A100000F050FC002801D000BF00E000BF022021
:100A200000F022FB022000F027FBDFF86C0300F04F
:100A300021FC00280CD04FF4FA70FFF725FCDFF8FA
:100A40005C0300F037FC002801D000BF00E000BFCD
:100A5000022000F009FB022000F00EFBDFF840034B
:100A600000F008FC00280CD04FF4FA70FFF70CFCE3
:100A7000DFF8300300F01EFC002801D000BF00E0CA
:100A800000BF022000F0F0FA022000F0F5FADFF8D3
:100A9000180300F0EFFB00280BD04FF4FA70FFF7BB
:100AA000F3FBC24800F006FC002801D000BF00E0C4
:100AB00000BF022000F0D8FA022000F0DDFABC48A6
:100AC00000F0D8FB00280BD04FF4FA70FFF7DCFBE6
:100AD000B84800F0EFFB002801D000BF00E000BFE5
:100AE000022000F0C1FA022000F0C6FAB24800F07D
:100AF000C1FB00280BD04FF4FA70FFF7C5FBAF48DD
:100B000000F0D8FB002801D000BF00E000BF0220A9
:100B100000F0AAFA022000F0AFFAA94800F0AAFB00
:100B200000280BD04FF4FA70FFF7AEFBA54800F099
:100B3000C1FB002801D000BF00E000BF022000F090
:100B400093FA022000F098FA9F4800F093FB0028E7
:100B50000BD04FF4FA70FFF797FB9C4800F0AAFB0C
:100B6000002801D000BF00E000BF022000F07CFAA6
:100B7000022000F081FA964800F07CFB00280BD0A0
:100B80004FF4FA70FFF780FB924800F093FB0028C7
:100B900001D000BF00E000BF022000F065FA022093
:100BA00000F06AFA8C4800F065FB00280BD04FF487
:100BB000FA70FFF769FB894800F07CFB002801D040
:100BC00000BF00E000BF022000F04EFA022000F05B
:100BD00053FA834800F04EFB00280BD04FF4FA7014
:100BE000FFF752FB7F4800F065FB002801D000BFF3
:100BF00000E000BF022000F037FA022000F03CFACB
:100C0000794800F037FB00280BD04FF4FA70FFF75B
:100C10003BFB764800F04EFB002801D000BF00E00F
:100C200000BF022000F020FA022000F025FA7048F0
:100C300000F020FB00280BD04FF4FA70FFF724FBE4
:100C40006C4800F037FB002801D000BF00E000BF77
:100C5000022000F009FA022000F00EFA664800F0C7
:100C600009FB00280BD04FF4FA70FFF70DFB634827
:100C700000F020FB002801D000BF00E000BF0220F0
:100C800000F0F2F9022000F0F7F95D4800F0F2FA06
:100C900000280BD04FF4FA70FFF7F6FA594800F02D
:100CA00009FB002801D000BF00E000BF022000F0D7
:100CB000DBF9022000F0E0F9534800F0DBFA0028ED
:100CC0000BD04FF4FA70FFF7DFFA504800F0F2FA59
:100CD000002801D000BF00E000BF022000F0C4F9EE
:100CE000022000F0C9F94A4800F0C4FA002809D0EF
:100CF0004FF4FA70FFF7C8FA464800F0DBFA002814
:100D000000D000BF022000F0AFF9022000F0B4F9DB
:100D1000414800F0AFFA00280BD04FF4FA70FFF70B
:100D2000B3FA3E4800F0C6FA002801D000BF00E048
:100D300000BF022000F098F9022000F09DF9384829
:100D400000F098FA00280BD04FF4FA70FFF79CFAE5
:100D5000344800F0AFFA002801D000BF00E000BF27
:100D600042F21070FFF790FA022000F07DF90220A5
:100D700000F082F92C4800F07DFAF1E76C190008C8
:100D8000001900080C190008841900081819000837
:100D90005C16000878160008AC1500085C15000801
:100DA000A0180008B018000894160008B016000833
:100DB000CC160008E81600080417000820170008E1
:100DC0003C1700085817000874170008901700080F
:100DD000AC170008C8170008E4170008001800083E
:100DE0001C1800083818000870180008541800086B
:100DF00024190008F4150008C0180008D0180008CD
:100E0000481900085419000884140008F414000854
:100E1000BC14000828150008301900083C19000807
:100E2000E0180008601900088818000834480168B4
:100E300051F0010101600168016831F0F80151F0E1
:100E4000800101602F4900220A600A6812F00C0F2D
:100E5000FBD1016831F08071016001688901FCD427
:100E6000016831F41021016001688903FCD4016834
:100E700031F4802101602548016851F080710160E2
:100E800070471F48016851F48031016001681E49B4
:100E90000A6832F010020A600A6852F010020A6012
:100EA0000A68D208D20052F004020A6015490A68A2
:100EB00032F0F0020A600A6832F460520A600A688E
:100EC00032F4E06252F480620A600A6832F47C1202
:100ED00052F4E8120A60026852F0807202600268FE
:100EE0009201FCD508688008800050F0020008607C
:100EF000086810F00C000828FAD1704700000000C4
:100F00000010024004100240002002402410024061
:100F10000C48016851F0100101600B48016831F480
:100F200070010160016851F40011016070474FF4D5
:100F300000500649086070474FF4005004490860AB
:100F400070470000181002400410014010100140CA
:100F500014100140012210F01F018A40B64940B22E
:100F6000400941F820207047012210F01F018A40FB
:100F7000B24940B2400941F82020704738B50C0012
:100F8000C0B2022845D1AE48016851F40031016079
:100F9000AC48016851F004010160AB4D0A22082100
:100FA000280000F0AEF8032000900E230C22A74981
:100FB000280000F0BCF8A648016851F40031016037
:100FC00000BF00BF00BF016831F40031016000BF05
:100FD00000BF00BF9F4D2100280000F055F80028F9
:100FE00002D55FF0FF3016E043229B499B4800F09A
:100FF00097F943229A499B4800F092F9280000F0A3
:10100000B7F82620FFF7A6FF280000F075F80020AB
:1010100001E05FF0FF3032BD80B5C0B2022808D1D8
:10102000C9B200918D4B43228A49262000F0B7F8BF
:1010300001E05FF0FF3002BD80B5C0B2022804D1EC
:101040008849262000F099F801E05FF0FF3002BDEA
:1010500080B5C0B2022804D1824800F093F900B2F2
:1010600001E05FF0FF3002BD80B5C0B2022802D1BE
:101070007C4800F089F901BD80B5C0B2022802D1D8
:10108000764800F081F901BD10B400220B684C686D
:10109000B3FBF4F39BB2836052F00C020B7A082B83
:1010A00002D0092B11D013E08B7A002B03D0022B36
:1010B00014D010D315E0C260497A012902D0022968
:1010C00012D016E0002010BC704752F48052EBE7BB
:1010D0005FF0FF30F7E752F48062ECE752F4C06251
:1010E000E9E75FF0FF30EEE7016951F4005101617B
:1010F000E8E75FF0FF30E6E7C16851F40051C160F6
:10110000704730B40323046813FA01F593402B436E
:1011100034EA030303600368012414FA01F1022492
:1011200014FA02F211431943016030BC704770B4E5
:10113000039C0325066815FA02F29D402A4336EA0D
:10114000020202600268022515FA03F313430360EA
:10115000012010FA04F40C6070BC7047C16851F0B3
:101160008001C1607047C16831F08001C160704783
:10117000C16851F02001C160704738B504000D000E
:10118000200040B2FFF7F0FE280000F0DEF8050076
:10119000200040B2FFF7DEFE280000B232BDF8B5F5
:1011A00005000E0014001F00280040B2FFF7DCFE0F
:1011B000A4B2380000F0E6F8241A012C0ADB069CE1
:1011C0002100C9B2380000F0B2F8E4B23000FFF7F5
:1011D000C5FF01E05FF0FF34280040B2FFF7BAFE20
:1011E000200000B2F2BD38B51F48006880060CD55B
:1011F00018480068800608D51C481D490968018008
:101200000188C9B2174800F092F8124C2068000615
:1012100011D5124D280000F0B5F8002808D0134C65
:10122000280000F092F8208020781149086002E040
:101230002000FFF798FF31BD00E100E080E100E011
:101240001C10024018100240000801401008014024
:101250001010024000440040684400205445002023
:10126000AC440020604500200C440040B045002004
:101270000444004070B50400200000F0A5F805000B
:10128000002600E0761C2800C0B2401E3100C9B222
:1012900088420DDB3000C0B2215C0220FFF7BCFEAB
:1012A0003100C9B2615CC0B28842EBD0002000E0DE
:1012B000012070BD70B504000220FFF7C9FE0500D3
:1012C000002600E0761C2800C0B2401E3100C9B2E2
:1012D00088420ADB0220FFF7AFFE3100C9B2615C31
:1012E000C0B28842EED0002000E0012070BD02882C
:1012F000521C0280028889B28A4201D300210180F7
:101300007047028889B28A4202D20188491C018052
:1013100070470188002902D00188491E018070476A
:10132000002343800023838002808160704710B5D2
:101330000400A068628881542188A01CFFF7D7FFB1
:101340002188201DFFF7DDFF10BD10B58188002921
:1013500002D15FF0FF3014E0B0F90210B0F90420C0
:101360008A1A110009B2002902D5B0F900108A18B2
:10137000816812B28C5C001DFFF7CBFFE4B2200045
:1013800000B210BD8088704700218180704730B462
:10139000002513E050F8042BD30744BFA9F1010343
:1013A0009A18091F042942F8045BFAD213468C07E5
:1013B00044BF15809B1CC90748BF1D7050F8041B13
:1013C0000029E7D130BC704700F10103810704D048
:1013D00010F8011B820781B1FAD10268A2F1013134
:1013E000914311F0803104BF50F8042FF6E709BA99
:1013F000B1FA81F100EBD100401CC01A704730B443
:101400000EE00268436802440830DC0744BFA9F1DB
:101410000104E31852F8045B43F8045B091FF9D197
:1014200050F8041B0029ECD130BC70470F49086804
:1014300050F0010008600E4A13680E480340136024
:101440000B680D4803400B60086830F4802008608A
:10145000106830F4FE0010605FF41F000749086058
:101460005FF000600649086070470000001002400D
:10147000041002400000FFF8FFFFF6FE08100240D3
:1014800008ED00E041542B4B45593D4E776B534BD3
:1014900065792C2022613362363535356134353239
:1014A00035643732393736656532616139393166CD
:1014B0006134633565220D0A0000000041542B4B56
:1014C00045593D415050534B45592C2022663861B7
:1014D00064623861633766656138323964643563E4
:1014E00065666330306137326335356437220D0A03
:1014F000000000002B4B45593A204E574B534B45AB
:10150000592041334236353535413435323544374B
:101510003239373645453241413939314641344314
:1015200035450D0A000000002B4B45593A2041502B
:1015300050534B4559204638414442384143374681
:1015400045413832394444354345464330304137CC
:101550003243353544370D0A000000002B49443A28
:10156000204465764575692C2045343A39433A382C
:10157000463A39433A37303A46323A43443A3935B3
:101580000D0A000010B5074979441831064C7C4417
:10159000163404E00A68081D114488470146A14238
:1015A000F8D110BD2C0000004C00000041542B4924
:1015B000443D4465764575692C20224534394338CD
:1015C0004639433730463243443935220D0A00004C
:1015D000BFFDFFFFB0450000040000200000000038
:1015E0001FFEFFFF040000006C040000000000204C
:1015F000000000002B44523A204555343333204438
:10160000523020534631322042573132354B0D0A89
:101610000000000000F00DF8002801D0FFF7B2FF35
:10162000AFF300800020AFF30080FFF78FF900F0E8
:1016300002F80120704700F001B800000746384664
:1016400000F002F8FBE7000080B5AFF30080024A2B
:1016500011001820ABBEFBE72600020041542B49C5
:10166000443D446576416464722C20223031343329
:1016700037336438220D0A002B49443A20446576FA
:10168000416464722C2030313A34333A37333A446F
:10169000380D0A0041542B43483D302C3433332E4F
:1016A0003137352C4452302C4452350D0A0000009D
:1016B0002B43483A20302C343333313735303030F7
:1016C0002C4452303A4452350D0A000041542B4309
:1016D000483D312C3433332E3337352C4452302CA3
:1016E0004452350D0A0000002B43483A20312C3477
:1016F00033333337353030302C4452303A4452355E
:101700000D0A000041542B43483D322C3433332E14
:101710003537352C4452302C4452350D0A00000028
:101720002B43483A20322C34333335373530303080
:101730002C4452303A4452350D0A000041542B4398
:10174000483D332C3433332E3737352C4452302C2C
:101750004452350D0A0000002B43483A20332C3404
:1017600033333737353030302C4452303A445235E9
:101770000D0A000041542B43483D342C3433332EA2
:101780003937352C4452302C4452350D0A000000B4
:101790002B43483A20342C3433333937353030300A
:1017A0002C4452303A4452350D0A000041542B4328
:1017B000483D352C3433342E3137352C4452302CBF
:1017C0004452350D0A0000002B43483A20352C3492
:1017D00033343137353030302C4452303A4452357E
:1017E0000D0A000041542B43483D362C3433342E2F
:1017F0003337352C4452302C4452350D0A0000004A
:101800002B43483A20362C3433343337353030309C
:101810002C4452303A4452350D0A000041542B43B7
:10182000483D372C3433342E3537352C4452302C48
:101830004452350D0A0000002B43483A20372C341F
:1018400033343537353030302C4452303A44523509
:101850000D0A00002B525857494E323A2034333487
:101860003636353030302C4452300D0A000000003E
:1018700041542B525857494E323D3433342E36366C
:10188000352C4452300D0A0041542B434D53473DF3
:101890002248656C6C6F205A68616E21220D0A0027
:1018A00041542B44523D45553433330D0A0000005A
:1018B0002B44523A2045553433330D0A00000000C2
:1018C00041542B504F5745523D31320D0A00000014
:1018D0002B504F5745523A2031320D0A000000007C
:1018E00041542B434C4153533D410D0A000000002D
:1018F00001488047014800472D1400087919000865
:101900004D435520776F726B65640000524846372F
:10191000382D3035320000002B41543A204F4B0D0A
:101920000A00000041542B44523D4452300D0A003D
:1019300041542B504F52543D310D0A002B504F5201
:10194000543A20310D0A000041542B4144523D4F7E
:101950004E0D0A002B4144523A204F4E0D0A000012
:101960002B434C4153533A20410D0A0000512502AC
:101970008025000008010000AFF30080AFF3008075
:10198000FFF748FE41540D0A0000000049444C4551
:1019900000000000FFF7FEBFFFF7FEBFFFF7FEBF2E
:1019A000FFF7FEBFFFF7FEBFFFF7FEBFFFF7FEBF6B
:1019B000FFF7FEBFFFF7FEBFFFF7FEBFFFF7FEBF5B
:1019C000FFF7FEBFFFF7FEBFFFF7FEBFFFF7FEBF4B
:1019D000FFF7FEBFFFF7FEBFFFF7FEBFFFF7FEBF3B
:1019E000FFF7FEBFFFF7FEBFFFF7FEBFFFF7FEBF2B
:1019F000FFF7FEBFFFF7FEBFFFF7FEBFFFF7FEBF1B
:101A0000FFF7FEBFFFF7FEBFFFF7FEBFFFF7FEBF0A
:101A1000FFF7FEBFFFF7FEBFFFF7FEBFFFF7FEBFFA
:101A2000FFF7FEBFFFF7FEBFFFF7FEBFFFF7FEBFEA
:101A3000FFF7FEBFFFF7FEBFFFF7FEBFFFF7FEBFDA
:101A4000FFF7FEBFFFF7FEBFFFF7FEBFFFF7FEBFCA
:081A5000FFF7FEBFAAAAAAAA33
:04000005080019795D
:00000001FF
